:020000040800F2
:10000000384C002029030008F3220008CD1F000807
:10001000F122000883050008AD2800080000000058
:10002000000000000000000000000000690200085D
:100030002506000800000000C50200085D23000836
:100040004303000843030008430300084303000878
:100050004303000843030008430300084303000868
:100060004303000843030008430300084303000858
:100070009D050008430300084303000843030008EC
:100080004303000843030008430300084303000838
:1000900085050008430300084303000843030008E4
:1000A0004303000843030008430300084303000818
:1000B0004303000843030008430300084303000808
:1000C00043030008430300084303000843030008F8
:1000D000430300084303000843030008F92700080E
:1000E00043030008430300084303000843030008D8
:1000F00043030008430300084303000843030008C8
:1001000043030008430300084303000843030008B7
:1001100043030008430300084303000843030008A7
:100120004303000843030008430300084303000897
:100130004303000843030008430300084303000887
:100140009105000843030008430300084303000827
:100150004303000843030008430300084303000867
:100160004303000843030008430300084303000857
:100170004303000843030008430300080000000095
:10018000430300084303000800F002F800F05CF8A5
:100190000AA090E8000C82448344AAF10107DA45E2
:1001A00001D100F051F8AFF2090EBAE80F0013F0D8
:1001B000010F18BFFB1A43F001031847D440000099
:1001C000F44000000A444FF0000C10F8013B13F01B
:1001D000070408BF10F8014B1D1108BF10F8015BA0
:1001E000641E05D010F8016B641E01F8016BF9D193
:1001F00013F0080F1EBF10F8014BAD1C0C1B09D1EA
:100200006D1E58BF01F801CBFAD505E014F8016B5B
:1002100001F8016B6D1EF9D59142D6D370470000ED
:100220000023002400250026103A28BF78C1FBD8FF
:10023000520728BF30C148BF0B6070471FB503F09D
:10024000B5FF1FBD10B510BD00F061F91146FFF7F5
:10025000F5FF03F0A7F800F07FF903B4FFF7F2FF12
:1002600003BC00F087F900002C4B19680868B0E85F
:10027000F04F80F30988BFF36F8F4FF0000080F3D9
:10028000118870470000000008480068006880F38B
:1002900008884FF0000080F3148862B661B6BFF39F
:1002A0004F8FBFF36F8F00DF00BF00BF08ED00E08E
:1002B000DFF80C00016841F470010160704700BF75
:1002C00088ED00E0EFF30980BFF36F8F134B1A68DE
:1002D0001EF0100F08BF20ED108A20E9F04F1060CB
:1002E00009B44FF0500080F31188BFF34F8FBFF374
:1002F0006F8F03F06FFD4FF0000080F3118809BC91
:1003000019680868B0E8F04F1EF0100F08BFB0EC95
:10031000108A80F30988BFF36F8F704710010020A7
:10032000EFF30580704700000948804709480047FF
:10033000FEE7FEE7FEE7FEE7FEE7FEE7FEE7FEE795
:10034000FEE7FEE704480549054A064B70470000F2
:10035000092400088901000838460020384C002094
:10036000384800203848002053EA020C00F0698029
:100370002DE9F04B4FF00006002B1FBFB3FA83F5B9
:1003800003FA05F424FA05F65E4012BF1643B2FAEA
:1003900082F502FA05F4C5F120051EBF22FA05FC1C
:1003A00044EA0C04203556EA044C4FEA144418BFC2
:1003B000641C4FF000084FF00009904271EB030CF1
:1003C00039D3002919BFB1FA81F701FA07F6B0FA5B
:1003D00080F700FA07F6C7F120071EBF20FA07FCD6
:1003E00046EA0C062037B6FBF4FCA7EB0507103FE6
:1003F00007F01F0BCBF120060CFA0BFB2CFA06F6CC
:1004000044BFB3460026202FA4BF5E464FF0000B2A
:100410005BEA060C08BF4FF0010B19EB0B09ABFBB5
:10042000027C48EB0608C01B06FB02CC0BFB03CC8E
:1004300071EB0C01C1E70B46024641464846BDE858
:10044000F08B13B54FF000004FF00001AFF30080C8
:10045000BDE81C40704710B5203AC0F00B80B1E8F1
:100460001850203AA0E81850B1E81850A0E81850E9
:10047000BFF4F5AF5FEA027C24BFB1E81850A0E8F2
:10048000185044BF18C918C0BDE810405FEA827C0C
:1004900024BF51F8043B40F8043B08BF7047D20723
:1004A00028BF31F8023B48BF11F8012B28BF20F8C4
:1004B000023B48BF00F8012B70474FF0000200B527
:1004C000134694469646203922BFA0E80C50A0E877
:1004D0000C50B1F12001BFF4F7AF090728BFA0E825
:1004E0000C5048BF0CC05DF804EB890028BF40F8F1
:1004F000042B08BF704748BF20F8022B11F0804F33
:1005000018BF00F8012B7047704770477047754659
:1005100000F02CF8AE4605006946534620F007006F
:10052000854618B020B5FFF70DFFBDE820404FF01D
:1005300000064FF000074FF000084FF0000B21F0CD
:100540000701AC46ACE8C009ACE8C009ACE8C0099A
:10055000ACE8C0098D46704710B50446AFF3008083
:100560002046BDE81040FFF778BE00000048704705
:10057000D445002001491820ABBEFEE7260002004A
:100580007047FEE7014800F0CCB90000CC03002022
:10059000014800F0C6B90000F4030020014800F053
:1005A0007FBC0000A804002001681823CAB2103ADA
:1005B000B2FBF3F2054B6FF30901032A9B5CC365A1
:1005C00000D9091D816508467047000044420008B3
:1005D00010B5014600208B698A6A4FF0C07453B190
:1005E000B3F5005F15D072B1012A0CD0022A0AD0EF
:1005F000032A09D104E01AB1012A06D0022A03D144
:10060000C96AC90100D5012010BDC96AA142FAD04A
:1006100010BD002AF7D0012AF2D0022AF3D0032A13
:10062000F3D010BD704772B6FEE790F82020012A83
:1006300007D0022A05D0416A41F48021416201209D
:100640007047006842690A43426100207047F0B574
:1006500090F820500468A468012D05D0022D03D025
:10066000416A41F480215DE014F0406F01D1E50062
:1006700055D5C4F30164022C03D9416A41F4000149
:1006800050E00125A5401D608D684FF4C0739DB1F9
:10069000CE6835434E6845EAC605066803EB041785
:1006A000F5514FF4C275076805EB04150E697E51CC
:1006B000097D012905D009E00E88CD6845EA465537
:1006C000EBE701684E5946F480764E511179D579A1
:1006D000567941EA056195792D0445EA06252943B5
:1006E0004FF4C676056806EB0416A9511178D57843
:1006F00041EA0561957852782D0445EA02221143BA
:100700004FF4C475026805EB04155151006803EB02
:100710000411425842F0010242500020F0BD416AEB
:1007200041F4001141620120F0BD000010B590F8C5
:100730002020012A07D0022A05D0416A41F48021F5
:100740004162012010BD3B48D0F8002242F0010276
:10075000C0F80022D0F8002222F47C52C0F8002217
:10076000D0F800224B6A42EA0322C0F800220A7D38
:1007700002F01F0301229A40D0F81C329343C0F8C4
:100780001C32CB69B3B9D0F80C329343C0F80C32A9
:100790008C894B6864F31F434C6900EBC404C4F8B4
:1007A00040320C890B6864F31F434C6900EBC404AE
:1007B000C4F84432CB69012B16D1D0F80C32134364
:1007C000C0F80C320C884B6864F31F434C6900EB93
:1007D000C404C4F840320C89CB6864F31F434C69ED
:1007E00000EBC404C4F844328B69002BD0F8043207
:1007F0000ED01343C0F804320B69002BD0F814322A
:1008000008D01343C0F81432096A012904D008E063
:100810009343EFE79343F5E7D0F81C121143C0F878
:100820001C12D0F8001221F00101C0F800120020C3
:1008300010BD000000640040704730B590F82040C3
:10084000012C05D0022C03D0416A41F480215DE0E7
:100850000468002955D02469A40754D04FF4D874F3
:10086000056804EB01142D5915F004059560056821
:100870002D594ED0ED08556005682C5904F002043E
:10088000D4604FF4DA74056804EB01142D5905F0B7
:100890000F05156105682D59C5F307259561056894
:1008A0002C59240C54614FF4DC72046802EB0112E1
:1008B000A4581C700468A458240A5C700468A458E6
:1008C000240C9C700468A258120EDA704FF4DE7289
:1008D000046802EB0112A4581C710468A458240A8D
:1008E0005C710468A458240C9C710468A258120E10
:1008F000DA71006881B1016941F0200101610020D5
:1009000030BDE468A8E7416A41F40011416201206A
:1009100030BD6D0D1560AFE7C16841F02001C160C9
:10092000EDE72DE9F05F0546006800244669D0F840
:1009300004908768D0F80CB0D0F810A0D0F81880D8
:10094000F10748D0F90714D001218160B80703D519
:10095000284600F09EFA0CE0780702D54FF40064B8
:1009600007E0380702D54FF4805402E0284600F033
:100970008FFAF80516D529684FF480708860B8059D
:1009800003D5284600F087FA0CE0780502D544F438
:10099000005407E0380502D544F4804402E02846BC
:1009A00000F078FAF80316D529684FF48030886093
:1009B000B80303D5284600F070FA0CE0780302D59E
:1009C00044F4004407E0380302D544F4803402E0E4
:1009D000284600F061FA300707D55FEACB6004D5FE
:1009E0002968102044F40074C86070074FF00807AD
:1009F00007D55FEA0B7004D52868C760284600F069
:100A000099F9B00706D52868C068800702D0284643
:100A100000F092F9700607D55FEACA6004D529682C
:100A2000102044F480640861B00607D55FEA0A70BC
:100A300004D528680761284600F0FAF9F00606D5C3
:100A400028680069800702D0284600F0F2F9B00358
:100A500008D55FEAC96005D5296810204860284696
:100A600000F0E8F9F00307D55FEA097004D52868BB
:100A70004760284600F012FA300446D55FEA497014
:100A800040D5F00504D55FEAC87001D044F00104F8
:100A9000B00504D55FEA887001D544F00204700502
:100AA00004D55FEA487001D544F00404300529D527
:100AB00018F0700F26D008F07000402815D006DC22
:100AC000102809D020280AD0302816D10AE0502852
:100AD0000ED0602811D10EE044F008040DE044F07F
:100AE00010040AE044F0200407E044F0400404E06D
:100AF00044F0800401E044F480742868816921F0A6
:100B000070018161296804204860002C05D0686A62
:100B1000204368622846FFF78FFEBDE8F09F70B55E
:100B2000040003D094F8200010B104E0012070BD4F
:100B3000204600F081F82068016841F00101016061
:100B400000F0E6FB0546052604E000F0E1FB401B53
:100B50000A2811D820684068C007F6D020680168CC
:100B600021F00201016000F0D3FB05460BE000F02C
:100B7000CFFB401B0A2806D9606A40F4003060624F
:100B800084F82060D2E7206840688007EFD4207E98
:100B90000128206801683DD021F080010160607E5D
:100BA00001282068016838D021F040010160A07E52
:100BB00001282068016833D021F020010160E07E27
:100BC0000128206801682ED041F010010160207FCB
:100BD00001282068016829D021F008010160607FA8
:100BE00001282068016824D021F004010160D4E9C3
:100BF00002010843D4E90412114308436168491E05
:100C000008432168C86100206062012084F8200048
:100C1000002070BD41F08001C0E741F04001C5E710
:100C200041F02001CAE721F01001CFE741F00801AF
:100C3000D4E741F00401D9E7F0B587B004461421A8
:100C40006846FFF73AFC364B3648DFF8D0E01968C3
:100C5000D4F800C0334A03250226092710300024A7
:100C6000491CF44522D11960012907D1016841F0DE
:100C700000710160006800F000700590106840F09D
:100C8000080010601068CDE9005600F00800CDE9BA
:100C9000047069462448CDE9024500F03BFA002281
:100CA0000521142000F0A6FB142032E0DFF87CE0E0
:100CB000F44530D1D0F800C04CF0806CC0F800C0D2
:100CC000D0F800C001290CF0806CCDF814C0196078
:100CD00007D1016841F000710160006800F0007008
:100CE0000590106840F002001060106802AB00F040
:100CF000020005906020CDE9000683E8B000694657
:100D00000B4800F007FA00220521402000F072FB9A
:100D1000402000F061FB07B0F0BD0000006400401F
:100D20001400002030380240000C024000680040EF
:100D3000000402407047000030B58FB0044606AB97
:100D400008AA0021FFF779FD3548364A3649844222
:100D50003CD10898A0F50073013B06D0012B1BD0B5
:100D6000022B19D0032B31D116E0042010702E4B2A
:100D70000D8D03F128001D86BDF818305BBA0B8578
:100D8000BDF81A305BBA4380BDF81C305BBA838073
:100D90009DF81E30837119E0C01CC0B2507000EB8A
:100DA000800001EB400331F810501D81BDF8185050
:100DB0006DBA21F81050BDF81A0040BA5880BDF83D
:100DC0001C0040BA98809DF81E0098711748844214
:100DD00024D10898A0F50073013B05D0012B03D066
:100DE000022B01D0032B19D1401EC0B2907000EB32
:100DF000800201EB420031F812300381BDF8183057
:100E00005BBA21F81230BDF81A1049BA4180BDF81A
:100E10001C1049BA81809DF81E1081710FB030BD41
:100E2000CC03002098000020E4060020F4030020FA
:100E3000704770477047000070B5044690F8200076
:100E4000012804D0606A40F40020606218E00220AB
:100E500084F820002068016821F00101016000F0A1
:100E600057FA05460EE000BF00F052FA401B0A2870
:100E700008D9606A40F400306062052084F82000E0
:100E8000012070BD20684068C007EDD1606270BD70
:100E90007047704770477047704770477047000051
:100EA0002DE9F84304464FF00009CDF8009063485F
:100EB0004FF41651A56D0068B0FBF1F72E6894F859
:100EC0005C10082000FA01F131420FD021680A6855
:100ED00052070BD50A6822F004020A6094F85C10ED
:100EE0008840A860606D40F00100606594F85C1077
:100EF0004FF0010808FA01F0304208D02168496932
:100F0000090604D5A860606D40F00200606594F8A1
:100F10005C1004208840304208D0216809688907A5
:100F200004D5A860606D40F00400606594F85C1022
:100F300010208840304218D021680968090714D56C
:100F4000A86020680168490304D50068000308D53B
:100F5000A16C07E00168C90503D4016821F008010C
:100F60000160216C09B12046884794F85C1020206C
:100F70008840304231D021680968C9062DD5A86063
:100F800094F8350005282068016806D0490347D544
:100F9000006800031DD4616C1CE021F016010160A3
:100FA0002068416921F080014161206C08B9A06C82
:100FB00020B12068016821F00801016094F85C10FC
:100FC0003F208840A86084F8358084F83490216DF3
:100FD0001FE0E16B09B120468847606D00282BD0E7
:100FE000606DC00714D0052084F8350020680168C2
:100FF00021F0010101600098401C0090B84203D824
:1010000020680068C007F6D184F8358084F83490F1
:10101000E16C002910D001B02046BDE8F04308473C
:101020000168C905D5D4016821F01001016084F878
:10103000358084F83490CCE7BDE8F8830C010020BB
:101040002DE9F041044600F063F906465CB1022048
:1010500084F83500002584F834502068016821F0B8
:10106000010101600DE00120BDE8F08100F050F9C0
:10107000801B052805D920206065032084F83500F1
:10108000F2E720680068C007F0D1226811682048A4
:101090000140D4E901031843D4E90336334318432C
:1010A00063691843A3691843E3691843236A184323
:1010B0000843616A042903D1D4E90B131943084397
:1010C000106020684069666A20F0070130460E43D0
:1010D000012704280CD1A06A0643E06A40B12046EB
:1010E000FFF776FA20B14020606584F83570BAE7E2
:1010F000206846612046FFF757FA94F85C203F21AC
:1011000091408160656584F835700020ACE700008F
:101110003F8010F02DE9F84FDFF8BCA10022012537
:101120000AF1040B03264FF00F090BF1040E00BF68
:101130000B6805FA02F42340A34270D10F7907F03F
:101140000307012F01D0022F16D187684FEA42080A
:1011500006FA08FC27EA0C07D1F80CC00CFA08FCC8
:101160004CEA070CC0F808C04768A7430C79C4F3E1
:10117000001494403C4344600C79E443A4070AD033
:10118000C4684FEA420C06FA0CF7BC438F6807FAB2
:101190000CF72743C7600C7904F00304022C12D12A
:1011A000D40800EB840CDCF820405707FF0E09FA46
:1011B00007F824EA0804D1F8108008FA07F848EA8A
:1011C0000408CCF8208004684FEA420C06FA0CF7B9
:1011D000BC430F7907F0030707FA0CF727430760B2
:1011E0004C6814F4403F70D03C4C276847F480476B
:1011F0002760246822F0030704F480440094384CEC
:1012000007EB040CDCF8084897074FEA177809FA4F
:1012100008F7BC43334FB84202D1002724E054E022
:10122000314FB84201D101271EE0304FB84201D101
:10123000022719E02E4FB84201D1032714E02D4FA9
:10124000B84201D104270FE02B4FB84201D1052746
:101250000AE02A4FB84201D1062705E0284FB842DC
:1012600001D1072700E0082707FA08F72743CCF841
:101270000878DAF800405746D1F804C09C435FEA8A
:10128000CC3C00D51C433C60DBF800405F46D1F805
:1012900004C09C435FEA8C3C00D51C433C60DEF8F4
:1012A00000407746D1F804C09C435FEACC2C00D5BF
:1012B0001C433C60084F0C373C68D1F804C09C4389
:1012C0005FEA8C2C00D51C433C60521C102AFFF4B2
:1012D0002FAFBDE8F88F0000003C014044380240C9
:1012E00000300140000002400004024000080240BB
:1012F000000C02400010024000140240001802409E
:10130000001C02400AB1816170470904FBE700003C
:101310000148806870470000000100200248816891
:101320000278114481607047000100200B4810B51D
:10133000016841F400710160016841F4806101605D
:10134000016841F480710160032000F073F80F2000
:1013500000F006F800F024F8002010BD003C024028
:1013600070B50D4D04464FF47A712878B1FBF0F05A
:101370000A490968B1FBF0F000F010FB48B9102CE5
:1013800007D200222146501E00F034F800206C6085
:1013900070BD012070BD0000000100200C01002084
:1013A0000C4882B0016841F480410160006800F49B
:1013B000804000900748001F016841F080510160A3
:1013C0000068002200F0805000900F21901E02B0B3
:1013D00000F010B844380240002809DB00F01F027A
:1013E000012191404009800000F1E020C0F8001187
:1013F00070470000F0B40E4B1B680C46C3F3022389
:10140000C3F10705042D00D90425191D072901D2B0
:10141000002300E0DB1E012606FA05F1491E2140EB
:1014200099409E40761E16403143F0BC01F03FBA11
:101430000CED00E0064900F0070208684FF6FF03D4
:10144000184040EA0220034A104308607047000039
:101450000CED00E00000FA052DE9F0470E4605000E
:1014600065D0DFF81481D8F80000F7B200F007006B
:10147000B04207D288F80070D8F8000000F00700EA
:10148000B04254D128683D4C810712D5400703D59E
:10149000206840F4E05020602878000703D52068D9
:1014A00040F4604020602068A96820F0F000084304
:1014B00020602878C0072DD0304968680839012895
:1014C00012D0022813D0032811D0096889070029F7
:1014D0002DDA216821F0030101432160FFF718FF95
:1014E000814641F2883A0EE009688903EFE709680E
:1014F0008901ECE7FFF70CFFA0EB0901514502D988
:101500000320BDE8F0872068696800F00C00B0EBAC
:10151000810FEFD1D8F80010404601F00701B14229
:1015200007D90770006800F00700B04201D0012021
:10153000E7E72878400705D52068E96820F4E050FF
:10154000084320602878000706D52068296920F420
:10155000604040EAC100206000F038F82168084A85
:10156000C1F30311515CC840064908600648006891
:10157000FFF7F6FE0020C4E7003C024008380240B6
:101580004C4200080C0100200401002004480549D9
:1015900000680968044AC1F38221515CC840704761
:1015A0000C010020083802405C420008044805494C
:1015B00000680968044AC1F34231515CC840704771
:1015C0000C010020083802405C420008154810B5A4
:1015D000006810F00C02144813D01449042A0FD0EC
:1015E000082A0ED10F4C241F2268236802F03F0204
:1015F0005B0207D52068C0F38810A0FB010106E05C
:10160000084610BD2168C1F38811A1FB0001002329
:10161000FEF7AAFE2168C1F30141491C4900B0FB55
:10162000F1F010BD083802400024F400001BB700A0
:101630002DE9F84F04006ED02078DFF84C93C007F6
:10164000A9F104054AD009F104000168C1F3810140
:10165000012908D00068C0F3810002280AD1D9F816
:101660000000400206D52868800337D5606800284E
:10167000E1D033E06068B0F5803F10D0B0F5A02F26
:10168000286810D020F480302860286820F480205A
:1016900028606068A8B1FFF73BFE06460DE02868A9
:1016A00040F48030F4E740F480202860F7E700BF82
:1016B000FFF72EFE801B642873D828688003F7D5B7
:1016C0000CE0FFF725FE064605E000BFFFF720FE11
:1016D000801B6428F0D828688003F7D42078DFF8CE
:1016E000AC8280074FF0000A3ED5A748001D016874
:1016F00011F00C0F08D00068C0F3810002280BD154
:10170000D9F80000400207D42868800716D5E068A1
:10171000012800D112E033E1E068B8B10120C8F837
:101720000000FFF7F5FD064605E000BFFFF7F0FDFE
:10173000801B0228C0D828688007F7D5286821694F
:1017400020F0F80040EAC10028600DE0C8F800A0D1
:10175000FFF7DEFD064604E0FFF7DAFD801B0228F6
:101760001FD828688007F7D42078000722D5864F35
:1017700087486169703771B101210160FFF7C8FDC9
:10178000064604E0FFF7C4FD801B022809D838682C
:101790008007F7D50EE0C0F800A0FFF7B9FD0646B8
:1017A00005E082E0FFF7B4FD801B02287DD8386891
:1017B0008007F7D42078400768D5DFF8CCB1002740
:1017C0000BF13C0BDBF80000C0000BD4DBF8001081
:1017D00041F08051CBF80010DBF80000012700F049
:1017E000805000906B4E3068C00510D4306840F4D3
:1017F00080703060FFF78CFD009005E0FFF788FDFA
:101800000099401A022850D83068C005F6D55E4EBF
:10181000A0686C3601280FD00528306810D020F061
:1018200001003060306820F004003060A068B8B17A
:10183000FFF76EFD00900FE0306840F00100F4E724
:1018400040F004003060F7E7FFF762FD0099411AAD
:1018500041F28830814266D830688007F4D50EE0C6
:10186000FFF756FD009007E0FFF752FD0099411A7F
:1018700041F28830814256D830688007F4D42FB1C5
:10188000DBF8001021F08051CBF80010A069C8B33C
:101890003D49091D0968C1F3810102294AD0022886
:1018A000504607D0C8F8600000E03CE0FFF730FD8C
:1018B00004463BE04746C8F86000FFF729FD0646AE
:1018C00005E000BFFFF724FD801B02282BD8286805
:1018D0008001F7D4D4E907010843A16A2E4A4908D8
:1018E00002EB0141626A41EA8211084394F82C102C
:1018F00040EA0161C9F8001001203866FFF708FDD1
:10190000044606E03EE000BFFFF702FD001B022890
:1019100009D828688001F7D534E000BFFFF7F8FC4C
:10192000001B022802D90320BDE8F88F2868800137
:10193000F4D427E00128F7D0D9F80000E26900F4D8
:10194000800191421CD1226A00F03F01914217D1DF
:1019500047F6C071626A0140B1EB821F10D1A26AE2
:101960004FF0FF3300F4403103EB5202B1EB024F72
:1019700006D194F82C1000F07060B0EB016F01D02C
:101980000120D1E70020CFE70438024000004742A1
:10199000800E4742007000400000FFFF10B5401E5F
:1019A000B0F1807F01D3012010BD4FF0E0246061D1
:1019B0000F21601700F07BFF0020A061072020614D
:1019C000002010BD10B590F83C20012A22D0012241
:1019D00080F83C20CA688C6822F4407222434C682C
:1019E00022F4806222430C6822F4006222430C69D4
:1019F00022F4805222434C6922F400522243C969E6
:101A0000002322F480420A4301684A6480F83C3093
:101A1000002010BD022010BD70B590F83C20012AB6
:101A200032D0012480F83C40022280F83D20036837
:101A30005A689D6822F070060A6832435A60134B58
:101A400002689A4214D0B2F1804F11D0104B9A42E2
:101A50000ED0104B9A420BD00F4B9A4208D00F4B2E
:101A60009A4205D00E4B9A4202D00E4B9A4204D1B4
:101A7000496825F080031943916080F83D400021BA
:101A800080F83C10084670BD022070BD0000014087
:101A90000004004000080040000C00400004014029
:101AA000004001400018004010B5040003D094F835
:101AB0003D0010B107E0012010BD002084F83C007B
:101AC000204600F01FF8022084F83D00211D206808
:101AD00000F0A2FC012084F8460084F83E0084F85F
:101AE0003F0084F8400084F8410084F8420084F804
:101AF000430084F8440084F8450084F83D00002049
:101B000010BD000008B500680649884208D10648A3
:101B1000016841F001010160006800F001000090DF
:101B200008BD0000000001404438024090F83D101C
:101B3000012901D001207047022180F83D10006882
:101B40001149884214D0B0F1804F11D00F4988421A
:101B50000ED00F4988420BD00E49884208D00E495A
:101B6000884205D00D49884202D00D49884204D1EF
:101B7000816801F00701062903D0016841F00101E5
:101B80000160002070470000000001400004004098
:101B900000080040000C00400004014000400140EB
:101BA0000018004070B5044690F83C00002501285C
:101BB00017D0012684F83C60022084F83D0020689C
:101BC000826822F0770222F47F42826008685028FF
:101BD00038D00DDC20284FD005DC90B3102811D16F
:101BE0004AE0022070BD302846D040280AD13BE0B0
:101BF00060282FD070280DD0B0F5805F03D0B0F5ED
:101C0000005F12D0012584F83D60002084F83C007C
:101C1000284670BDCB68D1E90121206800F06DFC39
:101C20002068816841F0770109E0CB68D1E90121A2
:101C3000206800F062FC2068816841F48041816086
:101C4000E1E719E0CA684968206800F02BFD5021DF
:101C5000206806E0CA684968206800F034FD602109
:101C6000206800F054FCCEE7CA684968206800F09C
:101C700019FD40212068F4E7226801461046F0E78C
:101C800010B586B0044614216846FEF716FC0E49CE
:101C90002068884216D10D480021026842F01002E7
:101CA0000260006800F0100005904FF4285000908A
:101CB0000220CDE901010120CDE903106946044865
:101CC000FFF728FA06B010BD00000140303802408E
:101CD0000010024070B5044690F83C0000260D4606
:101CE00001280FD0012084F83C006AB1042A1DD0DD
:101CF000082A2FD00C2A3FD00126002084F83C006F
:101D0000304670BD022070BD206800F009FC2068DC
:101D1000816941F0080181612068816921F0040135
:101D20008161206881692A69114311E0206800F00F
:101D300027FC2068816941F4006181612068816924
:101D400021F480618161206881692A6941EA022168
:101D50008161D2E7206800F049FC2068C16941F048
:101D60000801C1612068C16921F00401C1612068D6
:101D7000C1692A69114311E0206800F06BFC2068FA
:101D8000C16941F40061C1612068C16921F48061C9
:101D9000C1612068C1692A6941EA0221C161ACE7D9
:101DA00010B5040003D094F83D0010B107E0012005
:101DB00010BD002084F83C00204600F01EF80220F0
:101DC00084F83D00211D206800F026FB012084F8E6
:101DD000460084F83E0084F83F0084F8400084F810
:101DE000410084F8420084F8430084F8440084F8F9
:101DF000450084F83D00002010BD704710B5044632
:101E0000022249B104290ED0082913D094F84100C8
:101E1000012816D0012010BD94F83E000128F9D108
:101E200084F83E200FE094F83F000128F2D184F8B6
:101E30003F2008E094F840000128EBD184F84020CE
:101E400001E084F841200122206800F049FB164996
:101E50002068164A884201D0904203D1436C43F473
:101E6000004343642068884213D0B0F1804F10D003
:101E70000F4988420DD00F4988420AD00E49884246
:101E800007D0904205D00D49884202D00C498842C3
:101E900004D1816801F00701062903D0016841F0EF
:101EA00001010160002010BD00000140000401405C
:101EB0000004004000080040000C004000400140C9
:101EC0000018004070B5040004D094F83D000025CF
:101ED00010B106E0012070BD84F83C50204600F0AF
:101EE00023F8242084F83D002068C16821F40051C3
:101EF000C160204600F0FAFB2068016921F490419E
:101F000001612068416921F02A0141612068C168AE
:101F100041F40051C1602564202084F83D0084F81C
:101F20003E00002070BD000070B586B0064614214A
:101F30006846FEF7C2FA2049306888423AD11F4805
:101F40000025016841F480210160006800F48020D0
:101F500005901A481038016841F0040101600068DA
:101F6000694600F0040005904FF4406000900220A4
:101F7000CDE9010503200390072004901048FFF7E6
:101F8000C9F8114C0F4820604FF00060C4E901050A
:101F90004014C4E9035065614FF44030A561C4E9C1
:101FA000075020466562FFF74BF808B1FEF73BFB90
:101FB000B463A66306B070BD0048004040380240DC
:101FC0000008024028600240A8040020FEE701F05B
:101FD0008BF901F0ADF901F035F901F04DFA01F09E
:101FE00011FA012001F092FE00F09EFC032001F0A6
:101FF0008DFEEEE70F4810B50D49016003214160E9
:1020000000214FF410228160C0E903124FF4001246
:102010004261017641768176C17601774177FEF79C
:102020007EFD002803D0BDE81040FEF7FCBA10BDCD
:1020300000640040CC0300200F4810B50D4901603A
:102040000321416000214FF410228160C0E9031296
:102050004FF400124261017641768176C1760177B4
:102060004177FEF75CFD002803D0BDE81040FEF785
:10207000DABA10BD00680040F4030020094808B532
:10208000016841F4001101600068002200F40010B2
:10209000009005210C20FFF7ADF9BDE808400C20A9
:1020A000FFF79AB93038024010B5A4B01C221C4981
:1020B0006846FEF7D0F90021684601F011FA194C84
:1020C00017491C2220601C3107A8FEF7C4F9002123
:1020D00007A801F005FA124960601C2238310EA8E9
:1020E000FEF7B9F900210EA801F0FAF90C49A06039
:1020F0001C22543115A8FEF7AEF9002115A801F0F5
:10210000EFF90749E0601C2270311CA8FEF7A3F923
:1021100000211CA801F0E4F9206124B010BD0000EA
:10212000B84100080000002070B586B01421684650
:10213000FEF7C3F922480024016841F00201016062
:10214000016801F002010591016841F0010101609F
:10215000016801F001010591016841F00801016089
:10216000016801F008010591016841F00401016076
:10217000016801F004010591016841F080010160EE
:10218000016801F080010591016841F010010160D2
:1021900000680C4E00F010004FF4805505900022AE
:1021A00029463046FFF7AEF801200095CDE901043D
:1021B000694630460394FEF7ADFF06B070BD0000DF
:1021C000303802400004024010B596B000240F944D
:1021D00010941194129413941C2168461494FEF7E1
:1021E0006CF9202107A8FEF768F931482F490160F2
:1021F000A721C0E9011444F61F61C0E9031444613A
:102200008461FFF751FC08B1FEF70DFA4FF48050DE
:102210000F900FA92648FFF7C5FC08B1FEF703FA97
:102220002348FFF7BDFD08B1FEF7FDF9139413A98C
:102230001F481494FFF7F0FB08B1FEF7F4F9602093
:1022400000904FF4FA60CDE90104039404940594DE
:102250000022694616480694FFF73CFD08B1FEF7D8
:10226000E2F9042269461248FFF734FD08B1FEF78F
:10227000DAF9082269460E48FFF72CFD08B1FEF78F
:10228000D2F90794089409944FF400500A94CDE9C8
:102290000B4007A906480E94FFF794FB08B1FEF720
:1022A000C2F90348FFF7ECFC16B010BD0000014076
:1022B0001C0400200C4810B50A4901600B4941601C
:1022C000002181600C22C160C0E904128161C161FA
:1022D000FFF7F8FD002803D0BDE81040FEF7A3B9D2
:1022E00010BD00000048004064040020A0860100EA
:1022F000FEE7FEE730B5144B1C68656945F0400504
:1023000065611B68DC6844F01004DC600F4B1C68DE
:10231000256825F0010525601C682568ED07F7D1C3
:102320001D680B4CAC601C68E0601868016118689F
:1023300042601868016841F48021016018680168F2
:1023400041F00101016030BD64040020A8040020B8
:1023500004480040012001F0B7F8FBE710B5FEF794
:10236000DDFF01F04DFE012803D0BDE8104001F073
:10237000D9BD10BD30B593B030216846FEF79DF849
:1023800014210CA8FEF799F81D480025016841F0BA
:1023900080510160006800F0805011901948016878
:1023A00041F4804101600068022400F480401190F3
:1023B00001200090000401908001CDE90640062034
:1023C0000890A820CDE9090404200B906846FFF787
:1023D0002FF908B172B6FEE70CA90F2081E8310091
:1023E0004FF4A0500F904FF48050109005210CA88E
:1023F000FFF732F8002801D072B6FEE713B030BD07
:1024000040380240007000400248016841F4700109
:102410000160704788ED00E0F0B50268254C264D5C
:10242000264E274F274B4FF0804CA04209D06045E5
:1024300007D0A84205D0B04203D0B84201D098429C
:1024400004D122F0700E4A6842EA0E02A0421BD06C
:10245000604519D0A84217D0B04215D0B84213D069
:10246000984211D0184DA8420ED0184DA8420BD05A
:10247000174DA84208D0174DA84205D0164DA842C6
:1024800002D0164DA84203D122F44075CA682A43EF
:102490004D6922F080022A4302608A68C2620A689B
:1024A0008262A04201D0984201D1096901630121F1
:1024B0004161F0BD00000140000400400008004000
:1024C000000C004000040140004001400044014075
:1024D0000048014000180040001C0040002000405F
:1024E00010B501F01F030121046A99408C43046276
:1024F000016A9A401143016210BD10B5846842EA36
:10250000032224F47F440A432243826010BD826880
:1025100022F070020A4342F0070181607047000018
:10252000F0B5026A22F001020262036A426884691D
:10253000124E24F073050C682C4323F002058B68BF
:102540002B430D4DA84201D0B04205D123F008071E
:10255000CB683B4323F00403A84201D0B04205D12D
:102560004D6922F4407215438A692A4342608461AE
:10257000496841630362F0BD00000140000401406E
:10258000F0B5026A22F010020262026A43688469AE
:102590000D6824F4E64444EA05248D6822F0200204
:1025A00042EA05120F4D104EA84201D0B04206D1AA
:1025B000CF6822F0800242EA071222F04002A842CD
:1025C00001D0B04207D14D6923F4406343EA85034B
:1025D0008D6943EA850343608461496881630262CF
:1025E000F0BD00000000014000040140F0B5026AA7
:1025F00022F480720262026A4368C46922F40072A3
:1026000024F073050C68124E2C438D6842EA0522B3
:102610000E4DA84201D0B04206D1CF6822F400622C
:1026200042EA072222F48062A84201D0B04207D1D8
:102630004D6923F4405343EA05138D6943EA0513BA
:102640004360C4614968C1630262F0BD000001409B
:102650000004014030B5026A22F480520262046A2A
:102660004268C3690D6823F4E64343EA05238D6895
:1026700024F4005444EA0534084DA84202D0084D21
:10268000A84204D14D6922F4804242EA8512426098
:10269000C36149680164046230BD0000000001406C
:1026A0000004014010B5036A046A24F001040462C6
:1026B000846924F0F00444EA021423F00A020A4375
:1026C0008461026210BD10B5036A23F01003036237
:1026D0008369046A23F4704343EA023224F0A003BE
:1026E00043EA01118261016210BD000070B5044629
:1026F00000680169E26821F44051114301612169D8
:10270000A068E26908436169114308432168CA6807
:1027100049F20C639A430243CA6020684169A26986
:1027200021F440711143416131492068884202D04F
:102730003049884202D1FEF739FF01E0FEF726FF5B
:10274000E2690023192164253226B2F5004F626840
:1027500028D0A0FB0101930F9200FDF705FE014672
:10276000B0FBF5F06FF01802504301EB800006EB70
:102770000010B0FBF5F000F0F002B1FBF5F002EB59
:102780000012B1FBF5F06FF01803584301EB800025
:1027900006EB0010B0FBF5F000F00F0021681044CC
:1027A000886070BDA0FB010192185B41FDF7DCFD64
:1027B0000146B0FBF5F00201B1FBF5F06FF0180334
:1027C000584301EB800006EBC000B0FBF5F000F0D1
:1027D000F80002EB4002B1FBF5F0584301EB80003A
:1027E00006EBC000B0FBF5F000F00700D6E70000F4
:1027F0000010014000140140264818B40068016828
:10280000890604D501684068009018BC70472249C9
:102810000968C906F9D501684068204A0090106827
:1028200001684FF024030C031D49046824F00104DF
:10283000046016D410684468C4F12404A4B20C8067
:1028400043601068016841F400210160106801686C
:1028500041F001010160122CD7D1124901F116009B
:1028600015E014686068C0F1240080B208806360DD
:102870000D498B6A23F400238B6211680A6842F0C9
:1028800001020A601228C0D1064901F13A0018BCC1
:1028900001F01AB96404002000480040A804002098
:1028A000280000200805002000600240FEE709071C
:1028B000090E002804DB00F1E02080F800147047C6
:1028C00000F00F0000F1E02080F8141D70470000B8
:1028D00000B58BB000200121CDE9060108910090E0
:1028E0000190029003900590049069460C48FDF712
:1028F0001DFF0B48FEF7A0FA02210948FDF795FEDF
:102900000E200990059069460648FDF70FFF05481F
:10291000FEF792FA02210348FDF787FE0BB000BDD7
:10292000CC030020F4030020104808B54FF40071D8
:102930000160002108228160C0E903120C480B4AA3
:102940000170417081706C3AC17032F8441F0B0AFB
:102950000371417151886B460A0A8271C171024646
:1029600002490448FDF773FE08BD0000CC080020B2
:10297000F8000020CC030020F8B1D0ED101A00EED2
:10298000102AC0ED111AD0ED0F0AB8EEC00AC0ED42
:10299000100A80ED060A00EE101A511AB8EEC00AAD
:1029A00080ED070A00EE101AB8EEC00A80ED0F0A9B
:1029B000017829B1012939D076E09FED3D0A7047B1
:1029C00090ED011A61EE001AC0ED091A90ED0A1A95
:1029D00090ED022A02EE001A30EE600A80ED0A1A2B
:1029E00090ED0D2A80ED0E2A90ED0C2A80ED0D2A37
:1029F00080ED0C0AD0ED030A60EE800AC0ED0B0AF0
:102A000090ED050AB4EEC01AF1EE10FA09DCB1EE51
:102A1000400AB4EEC01AF1EE10FA02D390ED0A0AA1
:102A200001E080ED0A0A31EE800A29E030EE601AFA
:102A300090ED012A21EE021A80ED091A90ED022A8A
:102A400022EE002A80ED0A2AD0ED0D2AC0ED0E2AD2
:102A5000D0ED0C2AC0ED0D2AF0EE002A00EEE20ABD
:102A600030EE210A80ED0C0AD0ED030A20EE800A38
:102A700071EE020A80ED0B0A30EE800AD0ED080AF2
:102A800030EE200A80ED080AD0ED040AB4EEE00A28
:102A9000F1EE10FA06DCF1EE600AB4EEE00AF1EEB7
:102AA00010FA01D2C0ED080A90ED080A7047000044
:102AB00000000000564857490022027091ED020ABA
:102AC00080ED010A91ED030A80ED020A91ED040AFE
:102AD00080ED030A91ED050A80ED040A91ED060AE6
:102AE00080ED050A9FED4C0A80ED0E0A80ED0D0A7F
:102AF00080ED0C0A80ED080A80ED0B0A80ED0A0AD1
:102B000080ED090A80ED110A80ED100A80ED0F0AB0
:102B100080F84820D1ED070AC0ED130AD1ED080A6C
:102B2000C0ED140AD1ED090AC0ED150AD1ED0A0A6B
:102B3000C0ED160AD1ED0B0AC0ED170A80ED200A90
:102B400080ED1F0A80ED1E0A80ED1A0A80ED1D0A35
:102B500080ED1C0A80ED1B0A80ED230A80ED220A1D
:102B600080ED210A80F89020D1ED0C0AC0ED250AF5
:102B7000D1ED0D0AC0ED260AD1ED0E0AC0ED270AEF
:102B8000D1ED0F0AC0ED280AD1ED100AC0ED290AD7
:102B900080ED320A80ED310A80ED300A80ED2C0A9A
:102BA00080ED2F0A80ED2E0A80ED2D0A80ED350A8A
:102BB00080ED340A80ED330A80F8D820D1ED110A77
:102BC000C0ED370AD1ED120AC0ED380AD1ED130A73
:102BD000C0ED390AD1ED140AC0ED3A0AD1ED150A5B
:102BE000C0ED3B0A80ED440A80ED430A80ED420AC5
:102BF00080ED3E0A80ED410A80ED400A80ED3F0AFB
:102C000080ED470A80ED460A80ED450A70470000D6
:102C1000AC0500202C00002000000000114808B581
:102C20004FF40071016000218160C16008210161E1
:102C3000A0F5B2710C480A8B1312037042704A8BD4
:102C400013128370C2708A8B131203714271C98B85
:102C50006B460A128271C171024602490348FDF7B0
:102C6000F6FC08BDCC06002090000020F4030020F4
:102C7000F0B58B4BB3F93050012D02D0022D03D0AB
:102C800008E09FED880A01E09FED870A83ED0D0AB9
:102C900083ED0E0A854A82490020946D09684CB183
:102CA0009887D887A3F840008A8A9FED810A012A75
:102CB0003CD048E0B1F900401480B1F90260568080
:102CC000B1F9041063369180C72E00D2508064346D
:102CD000C82C00D810806431C82900D89080B2F97F
:102CE000021093ED0D0A00EE901AF8EEE00A60EE85
:102CF000200AFDEEE00A10EE901A9987B2F9001052
:102D000000EE901AF8EEE00A20EE200ABDEEC00AAE
:102D100010EE101AD987B2F90410D3ED0E0A00EEA6
:102D2000101AB8EEC00A20EE800A4EE000EE900ABB
:102D300093ED0D1AF8EEE00A41EE000AFDEEE00A0E
:102D400010EE902A9A878A8A022A0ED1B3F93C2083
:102D500093ED0D1A00EE902AF8EEE00A41EE400ADB
:102D6000FDEEE00A10EE902A9A878A8A042A0CD196
:102D700000EE900A93ED0D1AF8EEE00A41EE400ADB
:102D8000FDEEE00A10EE902ADA878A8A082A0ED130
:102D9000B3F93E2093ED0D1A00EE902AF8EEE00A0A
:102DA00041EE000ABDEEE00A10EE102ADA87B1F912
:102DB0000C1000EE100A00EE901A93ED0E1AB8EE09
:102DC000C00AF8EEE00A00EE810ABDEEC00A10EE7D
:102DD000101AA3F84010DC8F998F6218611AB3F8AB
:102DE0004040574222444E4212B21A842144598430
:102DF000391999843119D98459681324B1F9021009
:102E000091FBF4F109B219859E68B6F9026096FB50
:102E1000F4F65E85DE68B6F9026096FBF4F69E85F0
:102E20001E69B6F9026096FBF4F4DC857DB31C489C
:102E30004430FFF7A1FDBDEEC00A10EE100A188362
:102E40001748B3F92220B3F92A108C30FFF794FD0C
:102E5000BDEEC00A10EE100A58831148B3F92420C1
:102E6000B3F92C10D430FFF787FDBDEEC00A10EE89
:102E7000100A9883B3F92620B3F92E100D48FFF7F6
:102E80007BFDBDEEC00A10EE100AD883F0BDFFE74F
:102E9000188458849884D884188358839883F4E7D6
:102EA00068050020CDCCCC3DCDCC4C3E2C00002084
:102EB000000025448406002070B500F05DF80A4D3E
:102EC00000242860204600F04FF805EB8401641CC4
:102ED000E4B24860052CF5D3FFF7ECFD0348806DA4
:102EE00000B10120288670BD680500202C0000205C
:102EF00070B516480022012304681549E67AA57AC0
:102F0000022E01D1012D03D08A65022D02D004E0EA
:102F10008B6505E0022E00D10286150000D10386E4
:102F2000CD6D0D66A48A102C0BD0CA65C96D8D427B
:102F300006D0012904D1018E022904D00221018684
:102F400070BDCB65F2E7038670BD00006805002008
:102F50002C000020FFF7B0FFFFF7CAFFFFF788FE45
:102F6000FFF75CFEF8E70000024900EB800001EB90
:102F700040007047E4060020004870470805002024
:102F8000004870479C000020034940F2A4608880FC
:102F900002490968C8637047200000201C04002013
:102FA000F8B1D0ED101A00EE102AC0ED111AD0EDD4
:102FB0000F0AB8EEC00AC0ED100A80ED060A00EE56
:102FC000101A511AB8EEC00A80ED070A00EE101A66
:102FD000B8EEC00A80ED0F0A017829B1012939D075
:102FE00076E09FED3D0A704790ED011A61EE001A00
:102FF000C0ED091A90ED0A1A90ED022A02EE001AAD
:1030000030EE600A80ED0A1A90ED0D2A80ED0E2A4E
:1030100090ED0C2A80ED0D2A80ED0C0AD0ED030A0C
:1030200060EE800AC0ED0B0A90ED050AB4EEC01AFE
:10303000F1EE10FA09DCB1EE400AB4EEC01AF1EE7E
:1030400010FA02D390ED0A0A01E080ED0A0A31EE8F
:10305000800A29E030EE601A90ED012A21EE021A72
:1030600080ED091A90ED022A22EE002A80ED0A2A4C
:10307000D0ED0D2AC0ED0E2AD0ED0C2AC0ED0D2AA0
:10308000F0EE002A00EEE20A30EE210A80ED0C0A92
:10309000D0ED030A20EE800A71EE020A80ED0B0AE1
:1030A00030EE800AD0ED080A30EE200A80ED080AE2
:1030B000D0ED040AB4EEE00AF1EE10FA06DCF1EE0F
:1030C000600AB4EEE00AF1EE10FA01D2C0ED080A8F
:1030D00090ED080A7047000000000000564857496C
:1030E0000022027091ED010A80ED010A91ED020AC1
:1030F00080ED020A91ED030A80ED030A91ED040AC6
:1031000080ED040A91ED050A80ED050A9FED4C0A59
:1031100080ED0E0A80ED0D0A80ED0C0A80ED080AA4
:1031200080ED0B0A80ED0A0A80ED090A80ED110A94
:1031300080ED100A80ED0F0A80F84820D1ED060AD4
:10314000C0ED130AD1ED070AC0ED140AD1ED080A4B
:10315000C0ED150AD1ED090AC0ED160AD1ED0A0A33
:10316000C0ED170A80ED200A80ED1F0A80ED1E0ACF
:1031700080ED1A0A80ED1D0A80ED1C0A80ED1B0A05
:1031800080ED230A80ED220A80ED210A80F890204C
:10319000D1ED0B0AC0ED250AD1ED0C0AC0ED260ACF
:1031A000D1ED0D0AC0ED270AD1ED0E0AC0ED280AB7
:1031B000D1ED0F0AC0ED290A80ED320A80ED310A07
:1031C00080ED300A80ED2C0A80ED2F0A80ED2E0A6A
:1031D00080ED2D0A80ED350A80ED340A80ED330A4A
:1031E00080F8D820D1ED100AC0ED370AD1ED110AD0
:1031F000C0ED380AD1ED120AC0ED390AD1ED130A3B
:10320000C0ED3A0AD1ED140AC0ED3B0A80ED440A44
:1032100080ED430A80ED420A80ED3E0A80ED410ACE
:1032200080ED400A80ED3F0A80ED470A80ED460AB6
:1032300080ED450A7047000040070020A4000020F0
:1032400000000000264B10B5DA68B2F90210A3F8AE
:103250004C1018694488A3F84E405288A3F85C20AB
:103260004088A3F85E000020A3F84400A3F84600BD
:10327000186D6FF0F604F722F8B1012822D0022869
:1032800027D0052819D000BFB3F94820154844338A
:10329000FFF786FEBDEEC00A10EE100A1880114836
:1032A000B3F90620B3F90A104830FFF779FEBDEEF6
:1032B000C00A10EE100A588010BDA3F84840A3F8C9
:1032C0004A20E1E74FF68C30A3F8480040F2744002
:1032D00003E0BE20A3F848004042A3F84A00D3E729
:1032E000600800204007002070B5FFF745FE0E4D36
:1032F000002634462E652E662860201DC0B2FFF7DA
:1033000033FE05EB8401641CE4B24860062CF4D360
:10331000FFF736FEE861FFF7E1FE9FED040A85F84E
:10332000646085ED1A0A70BD60080020000000008E
:1033300070B51A48012300220168194CCD7A022D7C
:1033400002D18E7A012E08D022702678022436B15E
:103350008D8AB5F5006F12D00FE02370F5E7032DCD
:1033600007D18D7A032D04D1B1F90610002901DDB2
:10337000036570BD01DA046570BD026570BDB1F909
:103380000E50002D00DA0365B1F90E30002B00DD80
:103390000465C9890029F0D070BD000060080020D4
:1033A000A4000020FDF7C2FFFEF7E4FFFEF7BCFE1D
:1033B000FEF720FEFEF762FEFEF77CFFFEF704FF3D
:1033C000FEF73AFE00F0E0FAFFF782FA0948FEF74E
:1033D000ADFB00210748FEF711FD04210548FEF76B
:1033E0000DFD08210348FEF709FDFEF75DFE00F024
:1033F00072F8FEE71C04002001460020842900D05A
:10340000C81C70471B4B00B5186E38B142F21071E2
:103410004A42032808D004280BD00EE00020A3F86D
:103420005800A3F85A0008E0A3F85810A3F85A204F
:1034300003E0A3F85820A3F85A100E48B3F9582017
:10344000B3F95C1090385433FFF7AAFDBDEEC00A03
:1034500010EE100A18800748B3F90620B3F90A10D5
:103460004838FFF79DFDBDEEC00A10EE100A5880E7
:1034700000BD00006008002030B511480022032381
:1034800005781048042401683DB18D8A402D0FD184
:10349000B1F9101000290DDC10E0CD7A032D0BD10D
:1034A0008D7A012D08D1B1F90610002901DD0366DE
:1034B00030BD01DA046630BD026630BDFCDAF6E7E5
:1034C000A40000206008002010B500B9012000F021
:1034D0001DFC002010BD10B500F03EFC002010BD0A
:1034E0007FB50D4604464169B0F9080081B1A16974
:1034F00071B1FFF781FFD4E905128DE80700D4E927
:1035000000102B46226900F050FD039004B070BDFE
:10351000FFF772FF03A9CDE90001208A2B4682B292
:10352000D4E9001000F014FD012801D00020EDE7DF
:103530000398EBE72DE9F041184C0F460546E66885
:103540002068001D00F01AFB38B9206890F82C1094
:1035500001208840216981432161681C07D137B16E
:103560002168BDE8F0410E48091D00F04BBB206802
:103570003544B5424560216805D2A06BBDE8F041F5
:10358000091D00F027BB606B091D00F023FBA06A3A
:10359000854200D2A562BDE8F08100001001002044
:1035A000C00900202DE9F041054600F037FB2E4C04
:1035B000A068401CA06020682C4F10B1606940B327
:1035C0002DE02560A068012829D1002606EB8600A1
:1035D00007EB800000F0F0FA761C072EF6D32348A4
:1035E0008C3000F0E9FA2148A03000F0E5FA1F48DD
:1035F000B43000F0E1FA1D48C83000F0DDFA1B4895
:10360000DC3000F0D9FA19488C3060631430A063C4
:1036100005E02068E96AC06A884200D82560606ACF
:10362000401C6062E96A01202269884010432061E1
:1036300001EB810007EB8000291D00F0E3FA00F0A8
:103640000DFB606900280CD02068E96AC06A8842D6
:1036500007D207494FF080500860BFF34F8FBFF388
:103660006F8FBDE8F081000010010020E408002009
:1036700004ED00E010B5044690F8510058B101285F
:103680000CD002280FD0502080F31188BFF34F8F49
:10369000BFF36F8FFEE7206B00F0F4FA2046BDE821
:1036A000104000F0EFBA10BD10484FF470514207BF
:1036B00006D0C01D0D4920F00700411AC1F5705118
:1036C0000B4A00230144C2E900030839183A21F0EB
:1036D000070111604B600B600B1AC0E90013936087
:1036E0004FF000405360506170470000D409002043
:1036F00064010020144E154CA6F1C8074FF0805805
:10370000DFF84C9012E000BF00F088FAF068C5685E
:10371000281D00F033FAA068401EA0606068401EBB
:10372000606000F09BFA2846FFF7A4FF606800285D
:10373000EAD138680128F9D9C9F80080BFF34F8F62
:10374000BFF36F8FF2E70000AC09002010010020EA
:1037500004ED00E02DE9F0479A46DDE90984814651
:103760006FF00303206B03EB82021044089E20F0ED
:103770000707780707D0502080F31188BFF34F8FD9
:10378000BFF36F8FFEE7002561B1002023180A5CAC
:1037900083F834200A5C12B1401C1028F6D384F858
:1037A000435001E084F83450072E00D30626E66229
:1037B000C4E91165201D00F00AFA04F1180000F0B8
:1037C00006FA2461C6F107006462A061E56484F82A
:1037D000505052464946384600F0C0F82060B8F1D3
:1037E000000F01D0C8F80040BDE8F08730B511499E
:1037F00000E011460A688242FBD34B685C188442A1
:1038000003D1406818444860084643681C18944235
:1038100009D1084C183C2468A24209D052681A44C5
:1038200042600A6812680260814200D0086030BDC0
:103830000460F9E7640100200648416B096829B17A
:10384000416BC968C9684968816270474FF0FF31B0
:10385000FAE700001001002008484068401C4FF0C3
:10386000500080F3118804D0BFF34F8FBFF36F8FE8
:10387000FEE7BFF34F8FBFF36F8FFEE76C010020B1
:103880002DE9F0410546002700F09CFA324E3068E1
:1038900008B9FFF709FF706905424ED1C5B3083575
:1038A00068070ED005F00700C0F10800054468075E
:1038B00007D0502080F31188BFF34F8FBFF36F8F75
:1038C000FEE72DB37068854237D82348183001468B
:1038D0000C6801E020460C466168A94202D22168CA
:1038E0000029F7D131688C4227D007682168016030
:1038F00060680837411B10290FD96019420708D0AA
:10390000502080F31188BFF34F8FBFF36F8FFEE716
:1039100013E041606560FFF769FF61687068401AF5
:103920007060B268904200D2B060706901430020BC
:10393000C4E90001F068401CF06000F0D5FB780796
:1039400007D0502080F31188BFF34F8FBFF36F8FE4
:10395000FEE73846BDE8F0814C01002010B5031F9A
:103960004FF080741C601B1F21F001011960191FAA
:10397000044B0B6014390A60091F6FF002024438CF
:103980000A6010BD5938000802492422A1F1240020
:10399000FEF7B0BC42050020FFF7F6FFFEF72CFF54
:1039A000FCE70000FFF7E8FA444D2860FFF7ECFA67
:1039B000434E40F6C41A3168C1F834A031684FF460
:1039C000FA7BC1F838B04FF480694FF00108002746
:1039D000A5F108042868C17A022902D1817A012957
:1039E00009D0277194F902106170808A484505D189
:1039F00084F8028003E084F80480F3E7A77094F968
:103A00000200884208D038B12078012802D084F81A
:103A1000008003E0277014E0207890B15FF000028E
:103A20004FF480512748FDF76DFC2079F0B12868EC
:103A3000B0F91010002909DD808AB0F5007F02D0AE
:103A40000AE00122ECE784F8038005E004DA808ACA
:103A5000B0F5007F00D1E770E07868B1316840F2DE
:103A60000640486340F2BC70316888632868817CF6
:103A700039B101290AD00BE03168C1F834A05846A9
:103A8000F2E7C27C22B940F2A4600EE0C27C1AB117
:103A9000C07C012803D009E040F2575005E011B185
:103AA000012908D002E040F2F170A8803168B5F930
:103AB0000400C8638EE74FF46170F6E72000002031
:103AC0001C04002000040240F0B5002855D0002955
:103AD00053D00278437842EA0322C2F30A020A80F2
:103AE00043788478DB0843EA4413C3F30A034B802A
:103AF0008478C578A40944EA8504057944EA8524D4
:103B0000C4F30A048C80057946796D0845EAC61528
:103B1000C5F30A05CD804679C6F301168E72467943
:103B2000B609CE728679C77946EA07268E81067A6B
:103B3000477A46EA0726CE81867AC77A46EA07267A
:103B40000E82067B8E74467BCE74867BC77B46EAEC
:103B500007268E82067C407CA2F580620A80A3F54F
:103B600080634B80A4F5806446EA00208C80A5F534
:103B70008065CD80A0F580600881F0BDD0E901327C
:103B800001699A60D0E901235A604A68824201D1F2
:103B900082684A60002202610868401E0860086866
:103BA00070470000034B036003F15400086080205D
:103BB000106070477801002000F108014FF0FF32DB
:103BC000C0E90112C160016100210160704700215C
:103BD0000161704730B50B685A1C02D000F1080231
:103BE00002E0026904E02246546825689D42FAD941
:103BF00053684B6099608A60516008610168491C94
:103C0000016030BD42684A6093688B609368596078
:103C1000916008610168491C01607047502080F381
:103C20001188BFF34F8FBFF36F8F0A494868401C5C
:103C3000486001280CD10848006810F0FF0F07D039
:103C4000502080F31188BFF34F8FBFF36F8FFEE7D3
:103C5000704700006C01002004ED00E0084948684E
:103C600028B1401E486001D180F311887047502070
:103C700080F31188BFF34F8FBFF36F8FFEE7000013
:103C80006C01002070B500282AD0164DA0F1080460
:103C900060686969084207D1502080F31188BFF33A
:103CA0004F8FBFF36F8FFEE722683AB1502080F349
:103CB0001188BFF34F8FBFF36F8FFEE788436060BB
:103CC00000F080F860686968084468602046FFF783
:103CD0008DFD2869401C2861BDE8704000F004BAE1
:103CE00070BD00004C0100204FF0E0200021016178
:103CF000816105494FF47A720968B1FBF2F1491EFE
:103D000041610721016170470C01002010B50200DC
:103D100014D00F48006B38B1502080F31188BFF3E6
:103D20004F8FBFF36F8FFEE700F04CF80021104675
:103D3000FFF700FC00F0D8F9002807D105494FF043
:103D400080500860BFF34F8FBFF36F8F10BD00002E
:103D50001001002004ED00E010B586B000240394AB
:103D600005AA04A903A80494FFF71CFFDDE90301D9
:103D70000094CDE9011000230EA11048059A00F02F
:103D800014F90F490028C86211D0502080F311881F
:103D9000BFF34F8FBFF36F8F4FF0FF30886201206A
:103DA0004861CC6006B0BDE8104000F041B806B0F4
:103DB00010BD000049444C4500000000F5360008E5
:103DC000100100200248016B491C0163704700008C
:103DD000100100201448016B11B10121C16170472D
:103DE0000021C1610169B1FA81F1C1F11F0101EB4B
:103DF00081020E4951F822306BB101EB820101F1D1
:103E000008034A6852684A609A4201D152684A607F
:103E1000D16801607047502080F31188BFF34F8F45
:103E2000BFF36F8FFEE7000010010020E4080020C0
:103E30001CB537480168374A914207D1502080F3BA
:103E40001188BFF34F8FBFF36F8FFEE700683149D2
:103E5000491E884207D1502080F31188BFF34F8F4D
:103E6000BFF36F8FFEE72C4908780190FF200870A0
:103E700008788DF800009DF800009DF8002000F003
:103E8000F000904207D0502080F31188BFF34F8F8D
:103E9000BFF36F8FFEE79DF80000204C00F050004C
:103EA00020700720A06005E09DF8002052008DF8EA
:103EB0000020401E9DF800201206F5D4A0600328C3
:103EC00007D0502080F31188BFF34F8FBFF36F8F5F
:103ED000FEE74FF44070A060019808700C48203055
:103EE000016841F470010160016841F070410160B6
:103EF000FFF7FAFE00206060FCF7DAF90848016875
:103F000041F040410160FCF7BFF900201CBD0000FA
:103F100000ED00E071C20F4100E400E06C01002000
:103F200034EF00E010B5502080F31188BFF34F8FBD
:103F3000BFF36F8F00F072F818B104494FF0805052
:103F40000860002080F3118810BD000004ED00E03F
:103F50002DE9FF5F8346DDE90E87994616468A46BE
:103F60009000FFF78DFC05001CD05420FFF788FC63
:103F7000040014D00020256384F85100CDE90240EC
:103F8000CDE900874B46324651465846FFF7E2FBE3
:103F90002046FFF707FB012004B0BDE8F09F28464C
:103FA000FFF770FE4FF0FF30F6E7F0B585B0DDE9C2
:103FB0000B640A9DA6B1DCB1542700972663022644
:103FC00084F85160002604AFCDE90246CDE90057E0
:103FD000FFF7C0FB2046FFF7E5FA049805B0F0BDF7
:103FE000502080F31188BFF34F8FBFF36F8FFEE730
:103FF000502080F31188BFF34F8FBFF36F8FFEE720
:104000000548416919B1006B18B1002070470120C3
:104010007047022070470000100100202DE9F04198
:104020002F4C0026206B28B1A069401CA0613046AF
:10403000BDE8F081E5686D1CE56013D1606B006838
:1040400038B1502080F31188BFF34F8FBFF36F8FCB
:10405000FEE7606BA16B6163A063206A401C206275
:10406000FFF7EAFBA06ADFF87C80854209D3606B2A
:104070000068A0B1606BC068C7687868854211D2DB
:10408000A0622068C06A00EB800158F82100012876
:1040900000D90126E0690028C9D00126C7E74FF002
:1040A000FF30EDE7381DFFF769FDB86A18B107F179
:1040B0001800FFF763FDF96A012022698840104368
:1040C000206101EB810108EB8100391DFFF79AFDAA
:1040D000F86A2168C96A8842C9D30126C7E7000087
:1040E00010010020E40800202DE9F0472C4D0024A9
:1040F0002746286B38B1FFF791FD286B401E2863D7
:10410000286B40B146E0502080F31188BFF34F8FF9
:10411000BFF36F8FFEE7A968224E0120D1B3A6F14D
:10412000B40980463068E8B1F068C46804F118004A
:10413000FFF724FD201DFFF721FDE06A2A6908FA38
:1041400000F11143296100EB800109EB8100211D81
:10415000FFF758FDE06A2968C96A8842E2D3C5F8CA
:104160001C80DFE70CB1FFF767FBAC6944B1464642
:10417000FFF754FF00B1EE61641EF9D10020A86181
:10418000E86938B10849012738070860BFF34F8F45
:10419000BFF36F8FFFF762FD3846BDE8F087000080
:1041A000100100209809002004ED00E04FF040705D
:1041B000E1EE100A70470000744200085523000821
:1041C000000000000000000080000000000000006F
:1041D0000000000064420008993900080000000057
:1041E000000000008000000000000000000000004F
:1041F0006C420008A5390008000000000000000023
:104200008000000000000000000000008042000864
:10421000552F000800000000000000008000000092
:10422000000000000000000088420008CF1F0008C6
:1042300000000000000000008000000000000000FE
:104240000000000000061016000610160000000016
:104250000000000001020304060708090000000036
:104260000102030472656D6F746500007361766509
:104270000000000064656661756C745461736B00C6
:1042800063686173736973006C6966740000000091
:10429000B04200080000002078010000C4010008BE
:1042A000DC42000878010020C04A0000200200081B
:1042B000011C021901A3C842237A460B3C803F141B
:1042C00001240B105041380A114014A950091A1446
:0C42D00089E48210036124F41AAA014161
:040000050800018965
:00000001FF
